:0400000007EF00F016
:100008004C828AED04F02AEF05F01AD280B219D09A
:1000180089848986898852EC05F013C046F014C09B
:1000280047F015C048F016C049F0050E4B6E020E99
:100038004A6E04D0010E4A6E80AAFCD780B2120024
:10004800FBD780BA19D089848986898852EC05F053
:1000580013C046F014C047F015C048F016C049F068
:10006800090E4B6E020E4A6E04D0010E4A6E80A233
:10007800FCD780BA1200FBD7000E3D6E000E3C6E16
:10008800000E3F6E000E3E6E56EC02F0010E0001AF
:100098006D6F81BA81A804D081A602D0000E6D6F61
:1000A8006DB102D0899401D0898481B204D0000155
:1000B800686B682B02D00001686B6847684768471F
:1000C80089506819F70B6819896E010E6E6F82BA2C
:1000D80082A804D082AC02D0000E6E6F6EB102D03E
:1000E800899801D08988120080A202D080BA07D0EE
:1000F800000E4A6E80A2FED780BA1200FBD7898410
:1001080089968988030E3D6EE80E3C6E030E3F6E9D
:10011800E80E3E6E56EC02F0120052EC05F06A0E44
:1001280046240001686F130E4720696F000E4820AF
:100138006A6F000E49206B6F1350685D145069593F
:1001480015506A5916506B59D8B006D0030E4A6E2E
:100158008994899689881200000E3D6E000E3C6EC7
:10016800000E3F6E000E3E6E56EC02F0898452EC93
:1001780005F0B50E46240001686F090E4720696F27
:10018800000E48206A6F000E49206B6F1350685D9F
:100198001450695915506A5916506B59D8B003D084
:1001A8006C6B6C2B02D000016C6B6C476C476C4716
:1001B80089506C19F70B6C19896E8998120081A601
:1001C80002D082BC0DD00D0E4A6E52EC05F013C061
:1001D80046F014C047F015C048F016C049F01200A8
:1001E80081B21DD082BA04D00001686B682B02D09E
:1001F8000001686B81B802D0010E01D0000E6819A9
:10020800D8A403D0040E4A6E120081B803D00B0E96
:100218004A6E120082BA03D0070E4A6E120081B8E5
:1002280003D00A0E4A6E120082BA03D0060E4A6E36
:10023800120081BA03D0090E4A6E120082B803D0A8
:10024800050E4A6E12004BC04AF01200030E3D6EB6
:10025800E80E3C6E030E3F6EE80E3E6E56EC02F062
:10026800030E4A6E1200030E3D6EE80E3C6E010E40
:100278003F6EF40E3E6E56EC02F0050E4B6E030E0A
:100288004A6E1200010E3D6EF40E3C6E030E3F6E78
:10029800E80E3E6E56EC02F0090E4B6E030E4A6EE7
:1002A800120052EC05F02C0E46240001686F010E76
:1002B8004720696F000E48206A6F000E49206B6F57
:1002C8001350685D1450695915506A5916506B5986
:1002D800D8B003D0030E4A6E1200FC0E3D6E180E05
:1002E8003C6EFC0E3F6E180E3E6E56EC02F012008D
:1002F800000E3D6E000E3C6E030E3F6EE80E3E6E25
:1003080056EC02F0090E4B6E030E4A6E1200030EF5
:100318003D6EE80E3C6E000E3F6E000E3E6E56ECD3
:1003280002F0050E4B6E030E4A6E1200FD0E3D6E76
:10033800440E3C6E020E3F6EBC0E3E6E56EC02F052
:10034800090E4B6E030E4A6E1200020E3D6EBC0E75
:100358003C6EFD0E3F6E440E3E6E56EC02F0050EEE
:100368004B6E030E4A6E1200000E3D6E000E3C6E80
:10037800020E3F6EBC0E3E6E56EC02F0090E4B6E3E
:10038800030E4A6E1200020E3D6EBC0E3C6E000E4D
:100398003F6E000E3E6E56EC02F0050E4B6E030EDD
:1003A8004A6E120052EC05F0F40E46240001686F04
:1003B800010E4720696F000E48206A6F000E492021
:1003C8006B6F1350685D1450695915506A5916506F
:1003D8006B59D8B003D0030E4A6E1200020E3D6E60
:1003E800BC0E3C6EFD0E3F6E440E3E6E56EC02F0A7
:1003F800120081B604D00001686B682B02D000019E
:10040800686B6847684789506819FB0B6819896EDB
:1004180082BC03D0686B682B02D00001686B683B14
:1004280089506819EF0B6819896E898680A202D0F5
:1004380080BA120080B280AAFDD7000E4A6E120060
:100448004A50000AD8B4E2D5010AD8B44DD6030AF6
:10045800D8B463D6010AD8B4B2D6070AD8B4F6D647
:10046800010AD8B472D7030AD8B451D7010AD8B44C
:10047800FAD60F0AD8B487D7010AD8B457D7030ACF
:10048800D8B436D7010AD8B4FDD6070AD8B46CD781
:10049800010AD8B406D7030AD8B4ABD7010AD8A43E
:1004A800120080D73E6C3F1ED8B03F2A3DBE06D012
:1004B800E90E3C5C030E3D58D8B017D03DAE06D0CF
:1004C800180E3C5CFC0E3D58D8A005D03CC060F02E
:1004D8003DC061F005D0FC0E0001616F180E606F21
:1004E80060C03CF061C03DF004D0030E3D6EE80EE4
:1004F8003C6E3FBE06D0E90E3E5C030E3F58D8B0B6
:1005080017D03FAE06D0180E3E5CFC0E3F58D8A060
:1005180005D03EC062F03FC063F005D0FC0E00017C
:10052800636F180E626F62C03EF063C03FF004D084
:10053800030E3F6EE80E3E6E3DAE03D0406A402A81
:1005480001D0406A89504018FE0B4018896E3FAEB2
:1005580003D0406A402A01D0406A8B504018FE0BF5
:1005680040188B6E3DBE05D03CC064F03DC065F0C0
:1005780007D0E80E3C240001646F030E3D20656F30
:100588003FBE05D03EC066F03FC067F007D0E80E1A
:100598003E240001666F030E3F20676FF20E216E46
:1005A800820E226E3F0E236E64C01BF065C01CF0E5
:1005B80040EC05F01BC01EF01CC01FF01DC020F051
:1005C800B9EC03F01EC02DF01FC02EF020C02FF094
:1005D8003FEC03F02DC064F02EC065F0F20E216EE2
:1005E800820E226E3F0E236E66C01BF067C01CF0A1
:1005F80040EC05F01BC01EF01CC01FF01DC020F011
:10060800B9EC03F01EC02DF01FC02EF020C02FF053
:100618003FEC03F02DC066F02EC067F064C040F0D8
:1006280065C041F0D89041324032D89041324032D2
:100638004050BE6E66C040F067C041F0D89041326D
:100648004032D890413240324050BB6E64C040F0D6
:10065800030E4016403ABD504018CF0B4018BD6EEF
:1006680066C040F0030E4016403ABA504018CF0B0F
:100678004018BA6E12002FC031F0326A336A2E3435
:10068800313601E3328031503B6E3B50D8A409D05B
:10069800000E2D6E000E2E6E000E2F6E000E306EA8
:1006A8001200170E316E2DC032F02EC033F02FC05D
:1006B80034F03128356E04D0D890343233323232A7
:1006C800352EFAD73250366E2E8EFF0E2D16FF0EAF
:1006D8002E16000E2F162D50376E2E50386E2F50B6
:1006E800396E3A6A8E0E3B5E3BAE16D03B50800A9E
:1006F8008F0FD8B009D0000E2D6E000E2E6E000E92
:100708002F6E000E306E1200D8903A3239323832DD
:1007180037323B3EF9D715D0170E3B640FD0000E89
:100728002D6E000E2E6E000E2F6E000E306E120013
:10073800D8903736383639363A363B063B50D8A447
:10074800F7D73650D8B408D03A1E391E381E376C41
:10075800000E382239223A2237C02DF038C02EF048
:1007680039C02FF03AC030F0120020C024F0256ABA
:10077800266A1F34243601E325802450276E27502B
:10078800D8A407D0000E1E6E000E1F6E000E206E3D
:10079800120023C024F0256A266A2234243601E395
:1007A800258024502C6E2C50D8A407D0000E1E6E25
:1007B800000E1F6E000E206E12002C507B0F272695
:1007C80020C02CF023502C1A800E2C161F8E228E3F
:1007D800FF0E2116FF0E2216000E2316000E286E9D
:1007E800000E296E000E2A6E070E2B6E1EA006D074
:1007F800215028262250292223502A22D8902032FC
:100808001F321E32D8902136223623362B2EEED7B1
:10081800090E2B6E1EA006D0215028262250292210
:1008280023502A22D89020321F321E32D8902A32E2
:10083800293228322B2EEED728C013F029C014F005
:100848002AC015F027C016F02CC017F033EC04F0BE
:1008580013C01EF014C01FF015C020F0120016506F
:10086800D8B405D0135014101510D8A40CD0000E0D
:10087800136E000E146E000E156E1200162AD89014
:10088800153214321332000E1314186E000E14149D
:10089800196EFE0E15141A6E185019101A10D8B4C5
:1008A8000CD0ECD7162A010E1326000E1422000EC7
:1008B8001522D890153214321332000E1314186E04
:1008C800000E1414196EFF0E15141A6E1850191014
:1008D8001A10D8B406D0E6D71606D89013361436B0
:1008E800153614BE03D0020E1660F6D716A0149E55
:1008F800D8901632165015121750D8A4158E13C05A
:1009080013F014C014F015C015F012000600FACF49
:1009180001F0FBCF02F0E9CF03F0EACF04F0E1CF1A
:1009280005F0E2CF06F0D9CF07F0DACF08F0F3CF21
:1009380009F0F4CF0AF0F6CF0BF0F7CF0CF0F8CFB0
:100948000DF0F5CF0EF04CC00FF04DC010F04EC0BA
:1009580011F04FC012F09EA207D09E92010E4226BF
:10096800000E43224422452212C04FF011C04EF01F
:1009780010C04DF00FC04CF00EC0F5FF0DC0F8FFD1
:100988000CC0F7FF0BC0F6FF0AC0F4FF09C0F3FF65
:1009980008C0DAFF07C0D9FF06C0E2FF05C0E1FFC3
:1009A80004C0EAFF03C0E9FF02C0FBFF01C0FAFF71
:1009B8004C921100C180C182C184C1866D966F8638
:1009C8009282928A929492969298938A938893822A
:1009D8009386948C9492949494909290000ECA6EFC
:1009E800CA50870B5809CA6ECA50FC0B0109CA6E57
:1009F800F90ECB6ECA84000EBE6ECF0EBD16BD506A
:100A0800F00B0C09BD6E000EBB6ECF0EBA16BA50B5
:100A1800F00B0C09BA6E000EF06E000E9D6E000E03
:100A2800A06ED09E9D82F28CF28ED09EF28CF28EB9
:100A3800000E3D6E000E3C6E000E3F6E000E3E6EC8
:100A480056EC02F08994899689981200C00EF66EC9
:100A58000A0EF76E000EF86E0900F5CF4BF000EEA7
:100A680042F0090EEE6AE806FDE14C904C92000E49
:100A7800F86E00015BEF05F01BC013F01CC014F00A
:100A8800156A8E0E166E000E176E33EC04F013C046
:100A98001BF014C01CF015C01DF0120042C013F06A
:100AA80043C014F044C015F045C016F01200DEEC47
:090AB80004F009EC00F0FDD70583
:020000040020DA
:08000000FFFFFFFFFFFFFFFF00
:020000040030CA
:0E000000240E011EFF0180FF0FC00FE00F4015
:00000001FF
