:0400000007EF00F016
:100008004D82DDED05F07FEF06F0EFD080B219D01C
:10001800898489868988B4EC06F013C042F014C03C
:1000280043F015C044F016C045F0020E4C6E020EA7
:10003800486E04D0010E486E80AAFCD780B2120028
:10004800FBD780BA19D0898489868988B4EC06F0F0
:1000580013C042F014C043F015C044F016C045F078
:10006800050E4C6E020E486E04D0010E486E80A23A
:10007800FCD780BA1200FBD7000E376E000E366E22
:10008800000E396E000E386EFDEC01F0010E000115
:10009800796F81BA81A804D081A602D0000E796F49
:1000A80079B102D0899401D0898481B204D0000149
:1000B800746B742B02D00001746B744774477447D7
:1000C80089507419F70B7419896E010E7A6F82BA08
:1000D80082A804D082AC02D0000E7A6F7AB102D026
:1000E800899801D08988120080A202D080BA07D0EE
:1000F800000E486E80A2FED780BA1200FBD7898412
:1001080089968988030E376EE80E366E030E396EAF
:10011800E80E386EFDEC01F01200B4EC06F06A0E41
:1001280042240001746F130E4320756F000E4420A3
:10013800766F000E4520776F1350745D1450755913
:100148001550765916507759D8B006D04BC048F09C
:10015800899489968988120082BE08D0020E4C18AC
:10016800D8A402D0050E01D0060E4B6E000E376ED5
:10017800000E366E000E396E000E386EFDEC01F082
:100188008984B4EC06F0B50E42240001746F090EA0
:100198004320756F000E4420766F000E4520776F60
:1001A8001350745D14507559155076591650775977
:1001B800D8B003D0786B782B02D00001786B7847E1
:1001C8007847784789507819F70B7819896E899894
:1001D800120010EC01F01200E8EC02F0120091ECB1
:1001E80004F0120016EC04F012004850000AD8B4CB
:1001F8000DD7010AD8B478D7030AD8B48ED7010A24
:10020800D8B4E7D7070AD8B4E7D7010AD8B4E7D7EC
:10021800030AD8A41200E6D7CFD081A602D082BCA8
:100228000DD0080E476EB4EC06F013C03EF014C0B3
:100238003FF015C040F016C041F0120081B217D04F
:1002480081B808D082BA03D0010E476E1200070E9B
:10025800476E120082BA08D081B803D0010E476EEB
:100268001200040E476E1200010E476E120081B88C
:1002780003D0060E476E120082BA03D0030E476EF3
:10028800120081BA03D0050E476E120082B803D05F
:10029800020E476E12004CC047F01200030E376E74
:1002A800E80E366E030E396EE80E386EFDEC01F07E
:1002B800000E476E1200030E376EE80E366E010E02
:1002C800396EF40E386EFDEC01F0020E4C6E000E25
:1002D800476E1200010E376EF40E366E030E396E3D
:1002E800E80E386EFDEC01F0050E4C6E000E476E00
:1002F8001200B4EC06F02C0E3E240001706F010EC3
:100308003F20716F000E4020726F000E4120736F06
:100318001350705D14507159155072591650735915
:10032800D8B003D0000E476E1200FC0E376E180EC0
:10033800366EFC0E396E180E386EFDEC01F01200A8
:10034800000E376E000E366E030E396EE80E386EEC
:10035800FDEC01F0050E4C6E000E476E1200030E08
:10036800376EE80E366E000E396E000E386EFDECF4
:1003780001F0020E4C6E000E476E1200FD0E376E35
:10038800440E366E020E396EBC0E386EFDEC01F06E
:10039800050E4C6E000E476E1200020E376EBC0E34
:1003A800366EFD0E396E440E386EFDEC01F0020E0D
:1003B8004C6E000E476E12004750000AD8B42DD775
:1003C800010AD8B46BD7030AD8B4E7D7010AD8B45E
:1003D800C6D7070AD8B46FD7010AD8B4CFD7030A4B
:1003E800D8B4AED7010AD8B475D70F0AD8A412006A
:1003F80080D7386C391ED8B0392A37BE06D0E90EF6
:10040800365C030E3758D8B017D037AE06D0180E62
:10041800365CFC0E3758D8A005D036C068F037C017
:1004280069F005D0FC0E0001696F180E686F68C08E
:1004380036F069C037F004D0030E376EE80E366E1A
:1004480039BE06D0E90E385C030E3958D8B017D03B
:1004580039AE06D0180E385CFC0E3958D8A005D035
:1004680038C06AF039C06BF005D0FC0E00016B6F24
:10047800180E6A6F6AC038F06BC039F004D0030EEA
:10048800396EE80E386E37AE04D00001666B662B05
:1004980002D00001666B89506619FE0B6619896ED9
:1004A80039AE03D0666B662B02D00001666B8B50A9
:1004B8006619FE0B66198B6E37BE05D036C06CF018
:1004C80037C06DF006D0E80E36246C6F030E372067
:1004D8006D6F39BE05D038C06EF039C06FF006D0E8
:1004E800E80E38246E6F030E39206F6FF20E216EFE
:1004F800820E226E3F0E236E6CC01BF06DC01CF086
:10050800A2EC06F01BC01EF01CC01FF01DC020F09E
:100518000CEC05F01EC02DF01FC02EF020C02FF0EF
:100528009AEC03F02DC06CF02EC06DF0F20E216E27
:10053800820E226E3F0E236E6EC01BF06FC01CF041
:10054800A2EC06F01BC01EF01CC01FF01DC020F05E
:100558000CEC05F01EC02DF01FC02EF020C02FF0AF
:100568009AEC03F02DC06EF02EC06FF06CC066F0F0
:100578006DC067F00001D89067336633D890673351
:1005880066336651BE6E6EC066F06FC067F0D89075
:1005980067336633D890673366336651BB6E6CC079
:1005A80066F0030E6617663BBD506619CF0B6619D9
:1005B800BD6E6EC066F0030E6617663BBA506619CC
:1005C800CF0B6619BA6E1200A0D081A602D082BCE9
:1005D8000DD0080E466EB4EC06F013C03AF014C005
:1005E8003BF015C03CF016C03DF01200010E466EFF
:1005F8001200030E376EE80E366E030E396EE80EE3
:10060800386EFDEC01F0000E466E1200B4EC06F0F8
:100618002C0E3A240001706F010E3B20716F000E02
:100628003C20726F000E3D20736F1350705D1450A4
:1006380071591550725916507359D8B00DD04CC015
:1006480046F0B4EC06F013C03AF014C03BF015C005
:100658003CF016C03DF01200FC0E376E180E366ED8
:10066800FC0E396E180E386EFDEC01F01200B4EC79
:1006780006F0F40E3A240001706F010E3B20716FF2
:10068800000E3C20726F000E3D20736F1350705D9A
:10069800145071591550725916507359D8B003D067
:1006A800000E466E1200020E376EBC0E366EFD0E40
:1006B800396E440E386EFDEC01F01200B4EC06F011
:1006C800F40E3A240001706F010E3B20716F000E8A
:1006D8003C20726F000E3D20736F1350705D1450F4
:1006E80071591550725916507359D8B003D0000E6D
:1006F800466E1200FD0E376E440E366E020E396ECF
:10070800BC0E386EFDEC01F012004650000AD8B459
:100718005CD7010AD8B46DD7030AD8B4A8D7070A9A
:10072800D8B4CCD70D0AD8A4120070D72FC031F096
:10073800326A336A2E34313601E332803150000197
:10074800656F6551D8A409D0000E2D6E000E2E6E6F
:10075800000E2F6E000E306E1200170E316E2DC077
:1007680032F02EC033F02FC034F03128356E04D06B
:10077800D890343233323232352EFAD73250000123
:10078800606F2E8EFF0E2D16FF0E2E16000E2F16E2
:100798002D50616F2E50626F2F50636F646B8E0EF9
:1007A800655F65AF16D06551800A8F0FD8B009D044
:1007B800000E2D6E000E2E6E000E2F6E000E306E87
:1007C8001200D8906433633362336133653FF9D7DD
:1007D80015D0170E65650FD0000E2D6E000E2E6E0B
:1007E800000E2F6E000E306E1200D89061376237FF
:1007F8006337643765076551D8A4F7D76051D8B413
:1008080008D0641F631F621F616D000E622363239B
:10081800642361C02DF062C02EF063C02FF064C065
:1008280030F0120081BA81A808D081B282AA05D01E
:1008380082B881A602D082BC03D0030E486E120093
:10084800B4EC06F000017F51135C805114588151BB
:10085800155882511658D8A0120054D0000E376E81
:10086800000E366EFC0E396E180E386EFDEC01F077
:10087800B4EC06F0200E132400017F6F030E142041
:10088800806F000E1520816F000E1620826F0A0EF1
:10089800496E1200030E376EE80E366E030E396E7F
:1008A800E80E386EFDEC01F0640EB4EC06F013248B
:1008B80000017F6F000E1420806F000E1520816FDD
:1008C800000E1620826F0B0E496E1200000E376E56
:1008D800000E366E000E396E000E386EFDEC01F01B
:1008E800B4EC06F0F40E132400017F6F010E1420FF
:1008F800806F000E1520816F000E1620826F0A0E81
:10090800496E12004950090AD8B4A8D7030AD8B4C6
:10091800C1D7010AD8A41200D9D781BA81A808D0B2
:1009280081B282AA05D082B881A602D082BC03D047
:10093800030E486E1200B4EC06F000018351135CFC
:10094800845114588551155886511658D8A012004C
:1009580054D0030E376EE80E366E000E396E000E58
:10096800386EFDEC01F0B4EC06F0900E1324000193
:10097800836F010E1420846F000E1520856F000E02
:100988001620866F0A0E4A6E1200030E376EE80EA6
:10099800366E030E396EE80E386EFDEC01F0640E0B
:1009A800B4EC06F013240001836F000E1420846F4A
:1009B800000E1520856F000E1620866F0B0E4A6EEE
:1009C8001200000E376E000E366E000E396E000EE5
:1009D800386EFDEC01F0B4EC06F0F40E13240001BF
:1009E800836F010E1420846F000E1520856F000E92
:1009F8001620866F0A0E4A6E12004A50090AD8B4A9
:100A0800A8D7030AD8B4C1D7010AD8A41200D9D7E5
:100A180020C024F0256A266A1F34243601E3258085
:100A28002450276E2750D8A407D0000E1E6E000E43
:100A38001F6E000E206E120023C024F0256A266A5D
:100A48002234243601E3258024502C6E2C50D8A45F
:100A580007D0000E1E6E000E1F6E000E206E1200D4
:100A68002C507B0F272620C02CF023502C1A800EE8
:100A78002C161F8E228EFF0E2116FF0E2216000E38
:100A88002316000E286E000E296E000E2A6E070E21
:100A98002B6E1EA006D02150282622502922235032
:100AA8002A22D89020321F321E32D8902136223680
:100AB80023362B2EEED7090E2B6E1EA006D0215002
:100AC80028262250292223502A22D89020321F3249
:100AD8001E32D8902A32293228322B2EEED728C03F
:100AE80013F029C014F02AC015F027C016F02CC046
:100AF80017F086EC05F013C01EF014C01FF015C0E7
:100B080020F012001650D8B405D013501410151048
:100B1800D8A40CD0000E136E000E146E000E156EC5
:100B28001200162AD890153214321332000E1314FC
:100B3800186E000E1414196EFE0E15141A6E185045
:100B480019101A10D8B40CD0ECD7162A010E132697
:100B5800000E1422000E1522D890153214321332CA
:100B6800000E1314186E000E1414196EFF0E1514CF
:100B78001A6E185019101A10D8B406D0E6D71606EF
:100B8800D89013361436153614BE03D0020E1660EC
:100B9800F6D716A0149ED890163216501512175074
:100BA800D8A4158E13C013F014C014F015C015F096
:100BB80012000600FACF01F0FBCF02F0E9CF03F0F4
:100BC800EACF04F0E1CF05F0E2CF06F0D9CF07F085
:100BD800DACF08F0F3CF09F0F4CF0AF0F6CF0BF034
:100BE800F7CF0CF0F8CF0DF0F5CF0EF04DC00FF0A9
:100BF8004EC010F04FC011F050C012F09EA208D0A5
:100C08009E92010E00017B27000E7C237D237E230C
:100C180012C050F011C04FF010C04EF00FC04DF090
:100C28000EC0F5FF0DC0F8FF0CC0F7FF0BC0F6FFB4
:100C38000AC0F4FF09C0F3FF08C0DAFF07C0D9FFF4
:100C480006C0E2FF05C0E1FF04C0EAFF03C0E9FFF8
:100C580002C0FBFF01C0FAFF4D921100C180C182A2
:100C6800C184C1866D966F869282928A948E929480
:100C780092969298938A938893829386948C94926E
:100C8800949494909290000ECA6ECA50870B58099B
:100C9800CA6ECA50FC0B0109CA6EF90ECB6ECA8423
:100CA800000EBE6ECF0EBD16BD50F00B0C09BD6E0A
:100CB800000EBB6ECF0EBA16BA50F00B0C09BA6E06
:100CC800000EF06E000E9D6E000EA06ED09E9D82EE
:100CD800F28CF28ED09EF28CF28E000E376E000EE1
:100CE800366E000E396E000E386EFDEC01F08994F8
:100CF800899689981200840EF66E0D0EF76E000E16
:100D0800F86E00EE49F010EE04F00900F5CFEEFFA2
:100D1800E550E150FAE100EE7BF00C0EEE6AE806D1
:100D2800FDE100EE3AF00F0EEE6AE806FDE14D90A7
:100D38004D92000EF86E0001BDEF06F01BC013F0D7
:100D48001CC014F0156A8E0E166E000E176E86EC17
:100D580005F013C01BF014C01CF015C01DF01200E4
:100D68007BC013F07CC014F07DC015F07EC016F077
:100D7800120032EC06F009EC00F0FDD70909030275
:020000040020DA
:08000000FFFFFFFFFFFFFFFF00
:020000040030CA
:0E000000240E011EFF0180FF0FC00FE00F4015
:00000001FF
