:0400000007EF00F016
:100008004C8260ED06F003EF07F04950D8B479D17F
:1000180038EC07F0FF0E13243C6EFF0E14203D6EE3
:10002800FF0E15203E6EFF0E16203F6E000E496E25
:1000380068D181A602D082BC0DD00A0E446E38EC7D
:1000480007F013C03CF014C03DF015C03EF016C0D8
:100058003FF0120081B217D081B808D082BA03D01D
:10006800010E446E1200070E446E120082BA08D0C8
:1000780081B803D0010E446E1200040E446E1200C3
:10008800010E446E120081B803D0060E446E1200B1
:1000980082BA03D0030E446E120081BA0DD0050E49
:1000A800446E38EC07F013C03CF014C03DF015C0A6
:1000B8003EF016C03FF0120082B80DD0020E446E1A
:1000C80038EC07F013C03CF014C03DF015C03EF00A
:1000D80016C03FF012004BC044F01200030E00019E
:1000E800616FE80E606F030E636FE80E626FB7EC26
:1000F80002F0000E446E1200030E0001616FE80E5C
:10010800606F010E636FF40E626FB7EC02F0020EBF
:100118004B6E38EC07F013C03CF014C03DF015C02E
:100128003EF016C03FF0000E446E1200010E0001B2
:10013800616FF40E606F030E636FE80E626FB7ECC9
:1001480002F0050E4B6E38EC07F013C03CF014C0FB
:100158003DF015C03EF016C03FF0000E446E120090
:1001680038EC07F02C0E3C2400016E6F010E3D2088
:100178006F6F000E3E20706F000E3F20716F13509E
:100188006E5D14506F591550705916507159D8B08A
:1001980003D0000E446E1200FC0E616F180E606FE3
:1001A800FC0E636F180E626FB7EC02F01200000EBF
:1001B8000001616F000E606F030E636FE80E626FDF
:1001C800B7EC02F0050E4B6E38EC07F013C03CF0AC
:1001D80014C03DF015C03EF016C03FF0000E446E4E
:1001E8001200030E0001616FE80E606F000E636F6E
:1001F800000E626FB7EC02F0020E4B6E38EC07F09F
:1002080013C03CF014C03DF015C03EF016C03FF0DE
:10021800000E446E120038EC07F0F40E3C24000186
:100228006E6F010E3D206F6F000E3E20706F000E46
:100238003F20716F13506E5D14506F5915507059EF
:1002480016507159D8B005D0090E4B6E000E446E89
:100258001200FC0E616F180E606F030E636FE80EDC
:10026800626FB7EC02F0050E4B6E000E446E120082
:1002780038EC07F0F40E3C2400016E6F010E3D20AF
:100288006F6F000E3E20706F000E3F20716F13508D
:100298006E5D14506F591550705916507159D8B079
:1002A80005D0080E4B6E000E446E1200030E616FEF
:1002B800E80E606FFC0E636F180E626FB7EC02F009
:1002C800020E4B6E000E446E1200020E0001616FAA
:1002D800BC0E606FFD0E636F440E626FB7EC02F0E8
:1002E800000E446E1200FD0E0001616F440E606F37
:1002F800020E636FBC0E626FB7EC02F0000E446E24
:1003080012004450000AD8B494D6010AD8B4E6D6EC
:10031800030AD8B4ADD7010AD8B463D7070AD8B44A
:10032800EBD6010AD8B477D7030AD8B440D7010A64
:10033800D8B4FCD60F0AD8B4C8D7010AD8B4D3D7D2
:10034800030AD8A412000CD7F7D080B219D0898438
:100358008986898838EC07F013C040F014C041F052
:1003680015C042F016C043F0020E4B6E020E456EE9
:1003780004D0010E456E80AAFCD780B21200FBD7CC
:1003880080BA19D089848986898838EC07F013C027
:1003980040F014C041F015C042F016C043F0050EFD
:1003A8004B6E020E456E04D0010E456E80A2FCD73E
:1003B80080BA1200FBD7000E0001616F000E606F5B
:1003C800000E636F000E626FB7EC02F0010E0001C1
:1003D800776F81BA81A804D081A602D0000E776F0A
:1003E80077B102D0899401D0898481B204D0000108
:1003F800726B722B02D00001726B724772477247A0
:1004080089507219F70B7219896E010E786F82BACA
:1004180082A804D082AC02D0000E786F78B102D0E6
:10042800899801D08988120080A202D080BA07D0AA
:10043800000E456E80A2FED780BA1200FBD78984D1
:1004480089968988030E0001616FE80E606F030EBC
:10045800636FE80E626FB7EC02F0120038EC07F039
:100468006A0E40240001726F130E4120736F000E54
:100478004220746F000E4320756F1350725D145044
:1004880073591550745916507559D8B006D04AC0CA
:1004980045F0899489968988120082BE0ED0020E92
:1004A8004B18D8A402D0050E07D0050E4B18D8A4B7
:1004B80002D0060E01D0040E4A6E000E616F000EC7
:1004C800606F000E636F000E626FB7EC02F08984F4
:1004D80038EC07F0B50E40240001726F090E412078
:1004E800736F000E4220746F000E4320756F135017
:1004F800725D145073591550745916507559D8B007
:1005080003D0766B762B02D00001766B7647764760
:10051800764789507619F70B7619896E89981200F3
:1005280009EC00F01200A0EC03F012009AEC04F0C1
:1005380012001FEC04F012004550000AD8B405D789
:10054800010AD8B471D7030AD8B488D7010AD8B435
:10055800E7D7070AD8B4E7D7010AD8B4E7D7030A18
:10056800D8A41200E6D70001626D631FD8B0632BD0
:1005780061BF06D0E90E605D030E6159D8B016D090
:1005880061AF06D0180E605DFC0E6159D8A005D089
:1005980060C066F061C067F004D0FC0E676F180E8B
:1005A800666F66C060F067C061F004D0030E616FCB
:1005B800E80E606F63BF06D0E90E625D030E6359F3
:1005C800D8B016D063AF06D0180E625DFC0E635922
:1005D800D8A005D062C068F063C069F004D0FC0EF2
:1005E800696F180E686F68C062F069C063F004D064
:1005F800030E636FE80E626F61AF03D0646B642B08
:1006080002D00001646B89506419FE0B6419896E6D
:1006180063AF03D0646B642B02D00001646B8B5012
:100628006419FE0B64198B6E61BF05D060C06AF057
:1006380061C06BF006D0E80E60256A6F030E612179
:100648006B6F63BF05D062C06CF063C06DF006D0FD
:10065800E80E62256C6F030E63216D6FF20E216E3A
:10066800820E226E3F0E236E6AC01BF06BC01CF018
:1006780026EC07F01BC01EF01CC01FF01DC020F0A8
:100688008FEC05F01EC02DF01FC02EF020C02FF0FB
:1006980015EC05F02DC06AF02EC06BF0F20E216E3D
:1006A800820E226E3F0E236E6CC01BF06DC01CF0D4
:1006B80026EC07F01BC01EF01CC01FF01DC020F068
:1006C8008FEC05F01EC02DF01FC02EF020C02FF0BB
:1006D80015EC05F02DC06CF02EC06DF06AC064F00A
:1006E8006BC065F00001D89065336433D8906533EA
:1006F80064336451BE6E6CC064F06DC065F0D89010
:1007080065336433D890653364336451BB6E6AC013
:1007180064F0030E6417643BBD506419CF0B641971
:10072800BD6E6CC064F0030E6417643BBA50641964
:10073800CF0B6419BA6E120073D081A602D082BCA6
:1007480012000A0E486E38EC07F02C0E1324000134
:10075800856F010E1420866F000E1520876F000E1E
:100768001620886FFC0E616F180E606FFC0E636FA9
:10077800180E626FB7EC02F0120038EC07F00001B7
:100788008551135C8651145887511558885116584D
:10079800D8A01200020E4B18D8A40BD0030E616F1C
:1007A800E80E606FFC0E636F180E626FB7EC02F014
:1007B8000BD0FC0E0001616F180E606F030E636FA3
:1007C800E80E626FB7EC02F00E0E486E38EC07F0D8
:1007D800F40E13240001856F010E1420866F000E9D
:1007E8001520876F000E1620886F120038EC07F06E
:1007F80000018551135C865114588751155888514A
:100808001658D8A012000C0E486E030E616FE80E41
:10081800606F030E636FE80E626FB7EC02F01200B0
:1008280048500A0AD8B4A9D7060AD8B486D7020A03
:10083800D8A41200DBD781BA81A808D081B282AAD5
:1008480005D082B881A602D082BC03D0030E456EC3
:10085800120038EC07F000017D51135C7E511458EA
:100868007F51155880511658D8A0120054D0000E48
:10087800616F000E606FFC0E636F180E626FB7EC4D
:1008880002F038EC07F0200E132400017D6F030EF0
:1008980014207E6F000E15207F6F000E1620806FCB
:1008A8000C0E466E1200030E616FE80E606F030EA9
:1008B800636FE80E626FB7EC02F0640E38EC07F075
:1008C800132400017D6F000E14207E6F000E15208A
:1008D8007F6F000E1620806F0D0E466E1200000E00
:1008E800616F000E606F000E636F000E626FB7ECF1
:1008F80002F038EC07F0F40E132400017D6F010EAE
:1009080014207E6F000E15207F6F000E1620806F5A
:100918000C0E466E120046500B0AD8B4A8D7070A28
:10092800D8B4C1D7010AD8A41200D9D781BA81A8EE
:1009380008D081B282AA05D082B881A602D082BC32
:1009480003D0030E456E120038EC07F00001815108
:10095800135C825114588351155884511658D8A0E5
:10096800120054D0030E616FE80E606F000E636FC3
:10097800000E626FB7EC02F038EC07F0900E13240B
:100988000001816F010E1420826F000E1520836F05
:10099800000E1620846F0C0E476E1200030E616F56
:1009A800E80E606F030E636FE80E626FB7EC02F03B
:1009B800640E38EC07F013240001816F000E142038
:1009C800826F000E1520836F000E1620846F0D0EA7
:1009D800476E1200000E616F000E606F000E636FAD
:1009E800000E626FB7EC02F038EC07F0F40E132437
:1009F8000001816F010E1420826F000E1520836F95
:100A0800000E1620846F0C0E476E120047500B0A1A
:100A1800D8B4A8D7070AD8B4C1D7010AD8A41200F5
:100A2800D9D72FC031F0326A336A2E34313601E318
:100A3800328031503B6E3B50D8A409D0000E2D6E49
:100A4800000E2E6E000E2F6E000E306E1200170E66
:100A5800316E2DC032F02EC033F02FC034F0312863
:100A6800356E04D0D890343233323232352EFAD73C
:100A78003250366E2E8EFF0E2D16FF0E2E16000EDD
:100A88002F162D50376E2E50386E2F50396E3A6A09
:100A98008E0E3B5E3BAE16D03B50800A8F0FD8B00F
:100AA80009D0000E2D6E000E2E6E000E2F6E000E59
:100AB800306E1200D8903A323932383237323B3EF3
:100AC800F9D715D0170E3B640FD0000E2D6E000E0F
:100AD8002E6E000E2F6E000E306E1200D890373634
:100AE800383639363A363B063B50D8A4F7D7365015
:100AF800D8B408D03A1E391E381E376C000E38227A
:100B080039223A2237C02DF038C02EF039C02FF0E4
:100B18003AC030F0120020C024F0256A266A1F343B
:100B2800243601E325802450276E2750D8A407D007
:100B3800000E1E6E000E1F6E000E206E120023C0E7
:100B480024F0256A266A2234243601E325802450BD
:100B58002C6E2C50D8A407D0000E1E6E000E1F6EEF
:100B6800000E206E12002C507B0F272620C02CF080
:100B780023502C1A800E2C161F8E228EFF0E211643
:100B8800FF0E2216000E2316000E286E000E296E88
:100B9800000E2A6E070E2B6E1EA006D021502826A6
:100BA8002250292223502A22D89020321F321E3266
:100BB800D8902136223623362B2EEED7090E2B6EEF
:100BC8001EA006D0215028262250292223502A224E
:100BD800D89020321F321E32D8902A322932283239
:100BE8002B2EEED728C013F029C014F02AC015F018
:100BF80027C016F02CC017F009EC06F013C01EF041
:100C080014C01FF015C020F012001650D8B405D03B
:100C1800135014101510D8A40CD0000E136E000E2B
:100C2800146E000E156E1200162AD8901532143262
:100C38001332000E1314186E000E1414196EFE0EE3
:100C480015141A6E185019101A10D8B40CD0ECD705
:100C5800162A010E1326000E1422000E1522D89013
:100C6800153214321332000E1314186E000E1414B9
:100C7800196EFF0E15141A6E185019101A10D8B4E0
:100C880006D0E6D71606D89013361436153614BE95
:100C980003D0020E1660F6D716A0149ED89016320E
:100CA800165015121750D8A4158E13C013F014C07F
:100CB80014F015C015F012000600FACF01F0FBCFB2
:100CC80002F0E9CF03F0EACF04F0E1CF05F0E2CF7C
:100CD80006F0D9CF07F0DACF08F0F3CF09F0F4CF58
:100CE8000AF0F6CF0BF0F7CF0CF0F8CF0DF0F5CFF8
:100CF8000EF04CC00FF04DC010F04EC011F04FC0B8
:100D080012F09EA208D09E92010E00017927000ED3
:100D18007A237B237C2312C04FF011C04EF010C001
:100D28004DF00FC04CF00EC0F5FF0DC0F8FF0CC021
:100D3800F7FF0BC0F6FF0AC0F4FF09C0F3FF08C0B5
:100D4800DAFF07C0D9FF06C0E2FF05C0E1FF04C013
:100D5800EAFF03C0E9FF02C0FBFF01C0FAFF4C92A3
:100D68001100C180C182C184C1866D966F8692824E
:100D7800928A948E929492969298938A9388938268
:100D88009386948C9492949494909290000ECA6E48
:100D9800CA50870B5809CA6ECA50FC0B0109CA6EA3
:100DA800F90ECB6ECA84000EBE6ECF0EBD16BD50B6
:100DB800F00B0C09BD6E000EBB6ECF0EBA16BA5002
:100DC800F00B0C09BA6E000EF06E000E9D6E000E50
:100DD800A06ED09E9D82F28CF28ED09EF28CF28E06
:100DE800000E0001616F000E606F000E636F000E51
:100DF800626FB7EC02F089948996899812008C0E7C
:100E0800F66E0E0EF76E000EF86E00EE46F010EE5F
:100E180006F00900F5CFEEFFE550E150FAE100EEEB
:100E280079F0100EEE6AE806FDE100EE3CF00A0EDD
:100E3800EE6AE806FDE14C904C92000EF86E000157
:100E480041EF07F01BC013F01CC014F0156A8E0E9A
:100E5800166E000E176E09EC06F013C01BF014C0D6
:100E68001CF015C01DF0120079C013F07AC014F000
:100E78007BC015F07CC016F01200B5EC06F0A8ECAB
:0A0E880001F0FDD70B0B0C01030273
:020000040020DA
:08000000FFFFFFFFFFFFFFFF00
:020000040030CA
:0E000000240E011EFF0180FF0FC00FE00F4015
:00000001FF
