:0400000007EF00F016
:100008004B8205ED06F0E7EF06F04A809FD3000E1D
:100018000101056F000E046F04C102F105C103F16F
:1000280002C100F103C101F100510111D8B405D09A
:10003800000EC16F010EC06F120080B202D0010E17
:1000480001D0000E066F076B06510711D8B423D0F4
:1000580089848986898813D022EC07F013C0BCF103
:1000680014C0BDF115C0BEF116C0BFF1000E0101EC
:10007800C36F050EC26F000EC16F020EC06F80B253
:1000880002D0010E01D0000E0C6F0D6B0C510D113A
:10009800D8B41200E1D780BA02D0010E01D0000E08
:1000A800146F156B14C112F115C113F1125113110C
:1000B800D8B427D089848986898813D022EC07F0A0
:1000C80013C0BCF114C0BDF115C0BEF116C0BFF11C
:1000D800000E0101C36F080EC26F000EC16F020E41
:1000E800C06F80BA02D0010E01D0000E1A6F1B6BD0
:1000F8001AC118F11BC119F118511911D8B41200FD
:10010800DDD7000E3E6E000E3D6E000E406E000EF6
:100118003F6EDFEC03F081B802D0010E01D0000E73
:100128000101206F216B20C11EF121C11FF11EB1F9
:1001380002D0899401D0898481B202D0010E01D005
:10014800000E01012C6F2D6B2CC12AF12DC12BF152
:100158002AC128F12BC129F128B102D0899601D0F2
:10016800898682BA02D0010E01D0000E0101386FD3
:10017800396B38C136F139C137F136C134F137C17D
:1001880035F134C132F135C133F132B102D0899839
:1001980001D089881200000E0101416F000E406FE6
:1001A80040C13EF141C13FF13EC13CF13FC13DF18B
:1001B8003C513D11D8A405D0000EC16F000EC06F90
:1001C8001200898489968988030E3E6EE80E3D6E7A
:1001D800030E406EE80E3F6EDFEC03F0120022ECD7
:1001E80007F06A0E0101BC250001606F130E0101C2
:1001F800BD210001616F000E0101BE210001626F87
:10020800000E0101BF210001636F1350605D14509F
:1002180061591550625916506359D8B009D0000E6B
:100228000101C16F030EC06F8994899689881200F5
:10023800000E3E6E000E3D6E000E406E000E3F6ECC
:10024800DFEC03F0898422EC07F0B50E0101BC2530
:100258000001606F090E0101BD210001616F000EF0
:100268000101BE210001626F000E0101BF210001E2
:10027800636F1350605D14506159155062591650E0
:100288006359D8B003D0646B642B02D00001646B4F
:1002980064476447644789506419F70B6419896E89
:1002A8008998120081B602D0010E01D0000E01011A
:1002B800426F436B42514311D8A40FD082BC02D085
:1002C800010E01D0000E486F496B48C146F149C183
:1002D80047F146514711D8B40FD0000EC16F0B0E2D
:1002E800C06F22EC07F013C0BCF114C0BDF115C0FB
:1002F800BEF116C0BFF112004AA005D0000EC16FB2
:10030800040EC06F120081B202D0010E01D0000E9F
:100318004E6F4F6B4EC14CF14FC14DF14CC14AF17C
:100328004DC14BF14A514B11D8B45AD082BA02D0C0
:10033800010E01D0000E5A6F5B6B5AC158F15BC1B8
:1003480059F158C156F159C157F156C154F157C125
:1003580055F181B802D0010E01D0000E606F616BBB
:1003680060C15EF161C15FF154515E1909E15551F7
:100378005F19D8A405D0000EC16F040EC06F12001B
:1003880081B802D0010E01D0000E6A6F6B6B6AC192
:1003980068F16BC169F168516911D8B405D0000ED4
:1003A800C16F0A0EC06F120082BA02D0010E01D0CE
:1003B800000E786F796B78C176F179C177F176C1E3
:1003C80074F177C175F174C172F175C173F172512D
:1003D8007311D8B405D0000EC16F070EC06F12009C
:1003E80081B802D0010E01D0000E7E6F7F6B7EC1F6
:1003F8007CF17FC17DF17C517D11D8B405D0000E10
:10040800C16F090EC06F120082BA02D0010E01D06E
:10041800000E8C6F8D6B8CC18AF18DC18BF18AC1F6
:1004280088F18BC189F188C186F189C187F186512C
:100438008711D8B405D0000EC16F060EC06F120028
:1004480081BA02D0010E01D0000E906F916B9051CD
:100458009111D8B405D0000EC16F080EC06F1200FC
:1004680082B802D0010E01D0000EA26FA36BA2C108
:10047800A0F1A3C1A1F1A0C19EF1A1C19FF19EC1AC
:100488009CF19FC19DF19CC19AF19DC19BF19A512C
:100498009B11D8B405D0000EC16F050EC06F1200B5
:1004A800C2C1C0F1C3C1C1F11200030E3E6EE80E15
:1004B8003D6E030E406EE80E3F6EDFEC03F0000E5B
:1004C8000101C16F030EC06F1200030E3E6EE80EED
:1004D8003D6E010E406EF40E3F6EDFEC03F0000E31
:1004E8000101C36F050EC26F000EC16F030EC06F0E
:1004F8001200010E3E6EF40E3D6E030E406EE80EC5
:100508003F6EDFEC03F0000E0101C36F080EC26FEF
:10051800000EC16F030EC06F120022EC07F0C80E68
:100528000101BC250001606F000E0101BD21000121
:10053800616F000E0101BE210001626F000E010112
:10054800BF210001636F1350605D1450615915504D
:10055800625916506359D8B016D0000E0101C16F08
:10056800030EC06F4AA01200000EC16F0D0EC06FBF
:1005780022EC07F013C0BCF114C0BDF115C0BEF1E8
:1005880016C0BFF11200FC0E3E6E180E3D6EFC0E3A
:10059800406E180E3F6EDFEC03F01200000E3E6E48
:1005A800000E3D6E030E406EE80E3F6EDFEC03F06A
:1005B800000E0101C36F080EC26F000EC16F030E5B
:1005C800C06F1200030E3E6EE80E3D6E000E406EC8
:1005D800000E3F6EDFEC03F0000E0101C36F050E45
:1005E800C26F000EC16F030EC06F1200FD0E3E6E8B
:1005F800440E3D6E020E406EBC0E3F6EDFEC03F003
:10060800000E0101C36F080EC26F000EC16F030E0A
:10061800C06F1200020E3E6EBC0E3D6EFD0E406EA7
:10062800440E3F6EDFEC03F0000E0101C36F050EB0
:10063800C26F000EC16F030EC06F120022EC07F0EC
:10064800F40E0101BC250001606F010E0101BD21FE
:100658000001616F000E0101BE210001626F000EF2
:100668000101BF210001636F1350605D145061598F
:100678001550625916506359D8B006D0000E0101C2
:10068800C16F030EC06F1200020E3E6EBC0E3D6EAF
:10069800FD0E406E440E3F6EDFEC03F0120081B693
:1006A80004D00001606B602B02D00001606B6047D2
:1006B800604789506019FB0B6019896E82BC03D0B2
:1006C800606B602B02D00001606B603B8950601941
:1006D800EF0B6019896E898680B202D0010E01D0B5
:1006E800000E0101A46FA56BA451A511D8A40FD0C9
:1006F80080BA02D0010E01D0000EAC6FAD6BACC158
:10070800AAF1ADC1ABF1AA51AB11D8B4120080B2B5
:1007180002D0010E01D0000EB06FB16BB051B11113
:10072800D8A4F5D780BA02D0010E01D0000EB86F58
:10073800B96BB8C1B6F1B9C1B7F1B651B711D8A400
:10074800E6D7000EC16F000EC06F1200C0C160F086
:10075800C1C161F000016151000AD8A412006051C2
:10076800000AD8B454D4010AD8B415D5030AD8B4A9
:1007780036D5010AD8B496D5070AD8B496D6010A50
:10078800D8B448D7030AD8B41DD7010AD8B49DD61F
:100798000F0AD8B42BD7010AD8B400D7030AD8B4A3
:1007A800A8D6010AD8B4B9D6070AD8B478D7010AA6
:1007B800D8A4120043D73F6C401ED8B0402A3EBE92
:1007C80006D0E90E3D5C030E3E58D8B016D03EAEBA
:1007D80006D0180E3D5CFC0E3E58D8A005D03DC092
:1007E80042F03EC043F004D0FC0E436E180E426E39
:1007F80042C03DF043C03EF004D0030E3E6EE80E0A
:100808003D6E40BE06D0E90E3F5C030E4058D8B09E
:1008180016D040AE06D0180E3F5CFC0E4058D8A04B
:1008280005D03FC044F040C045F004D0FC0E456EF2
:10083800180E446E44C03FF045C040F004D0030E8B
:10084800406EE80E3F6E3EAE03D0416A412A01D0A9
:10085800416A89504118FE0B4118896E40AE03D099
:10086800416A412A01D0416A8B504118FE0B411858
:100878008B6E3EAE06D0E80E3D243D6E030E3E2044
:100888003E6E40AE06D0E80E3F243F6E030E402079
:10089800406EF20E226E820E236E3F0E246E3DC015
:1008A8001BF03EC01CF006EC07F01BC01FF01CC07C
:1008B80020F01DC021F034EC05F01FC02EF020C040
:1008C8002FF021C030F0BAEC04F02EC03DF02FC05C
:1008D8003EF0F20E226E820E236E3F0E246E3FC053
:1008E8001BF040C01CF006EC07F01BC01FF01CC03A
:1008F80020F01DC021F034EC05F01FC02EF020C000
:100908002FF021C030F0BAEC04F02EC03FF02FC019
:1009180040F03DC013F03EC014F0000E166E040EF9
:10092800156EA5EC06F01350BE6E3FC013F040C024
:1009380014F0000E166E040E156EA5EC06F013509A
:10094800BB6E3DC041F0030E4116413ABD504118FF
:10095800CF0B4118BD6E3FC041F0030E4116413A1E
:10096800BA504118CF0B4118BA6E120030C032F09D
:10097800336A346A2F34323601E3338032503C6EA6
:100988003C50D8A409D0000E2E6E000E2F6E000E1B
:10099800306E000E316E1200170E326E2EC033F01C
:1009A8002FC034F030C035F03228366E04D0D890DD
:1009B800353234323332362EFAD73350376E2F8EE3
:1009C800FF0E2E16FF0E2F16000E30162E50386E04
:1009D8002F50396E30503A6E3B6A8E0E3C5E3CAEFC
:1009E80016D03C50800A8F0FD8B009D0000E2E6E5A
:1009F800000E2F6E000E306E000E316E1200D89071
:100A08003B323A32393238323C3EF9D715D0170EDC
:100A18003C640FD0000E2E6E000E2F6E000E306E4E
:100A2800000E316E1200D890383639363A363B36D9
:100A38003C063C50D8A4F7D73750D8B408D03B1E52
:100A48003A1E391E386C000E39223A223B2238C031
:100A58002EF039C02FF03AC030F03BC031F0120010
:100A680021C025F0266A276A2034253601E326802E
:100A78002550286E2850D8A407D0000E1F6E000EEF
:100A8800206E000E216E120024C025F0266A276A07
:100A98002334253601E3268025502D6E2D50D8A409
:100AA80007D0000E1F6E000E206E000E216E120081
:100AB8002D507B0F282621C02DF024502D1A800E92
:100AC8002D16208E238EFF0E2216FF0E2316000EE3
:100AD8002416000E296E000E2A6E000E2B6E070ECD
:100AE8002C6E1FA006D02250292623502A222450DB
:100AF8002B22D890213220321F32D890223623362A
:100B080024362C2EEED7090E2C6E1FA006D02250AC
:100B1800292623502A2224502B22D89021322032F1
:100B28001F32D8902B322A3229322C2EEED729C0E8
:100B380013F02AC014F02BC015F028C016F02DC0F1
:100B480017F0AEEC05F013C01FF014C020F015C06C
:100B580021F012001650D8B405D0135014101510F7
:100B6800D8A40CD0000E136E000E146E000E156E75
:100B78001200162AD890153214321332000E1314AC
:100B8800186E000E1414196EFE0E15141A6E1850F5
:100B980019101A10D8B40CD0ECD7162A010E132647
:100BA800000E1422000E1522D8901532143213327A
:100BB800000E1314186E000E1414196EFF0E15147F
:100BC8001A6E185019101A10D8B406D0E6D716069F
:100BD800D89013361436153614BE03D0020E16609C
:100BE800F6D716A0149ED890163216501512175024
:100BF800D8A4158E13C013F014C014F015C015F046
:100C080012000600FACF01F0FBCF02F0E9CF03F0A3
:100C1800EACF04F0E1CF05F0E2CF06F0D9CF07F034
:100C2800DACF08F0F3CF09F0F4CF0AF0F6CF0BF0E3
:100C3800F7CF0CF0F8CF0DF0F5CF0EF04BC00FF05A
:100C48004CC010F04DC011F04EC012F09EA207D05B
:100C58009E92010E4626000E47224822492212C0C3
:100C68004EF011C04DF010C04CF00FC04BF00EC04C
:100C7800F5FF0DC0F8FF0CC0F7FF0BC0F6FF0AC068
:100C8800F4FF09C0F3FF08C0DAFF07C0D9FF06C0A8
:100C9800E2FF05C0E1FF04C0EAFF03C0E9FF02C0AC
:100CA800FBFF01C0FAFF4B921100C180C182C184D1
:100CB800C1866D966F869282928A92949296929845
:100CC800938A938893829386948C94929494949024
:100CD8009290000ECA6ECA50870B5809CA6ECA5045
:100CE800FC0B0109CA6EF90ECB6ECA84000EBE6EEB
:100CF800CF0EBD16BD50F00B0C09BD6E000EBB6EBD
:100D0800CF0EBA16BA50F00B0C09BA6E000EF06E80
:100D1800000E9D6E000EA06ED09E9D82F28CF28E0B
:100D2800D09EF28CF28E000E3E6E000E3D6E000ECE
:100D3800406E000E3F6EDFEC03F089948996899827
:100D48001200000E186E16AE06D0156C161ED8B01E
:100D5800162A010E186E14AE06D0136C141ED8B0E5
:100D6800142A010E181A000E1A6E000E196E15506C
:100D78001610D8B41CD0010E176E04D0D8901536B2
:100D88001636172A16AEFAD7D89019361A361550CD
:100D9800135C16501458D8A005D01550135E165081
:100DA800145A1980D89016321532172EEDD71850CC
:100DB800D8B404D0196C1A1ED8B01A2A19C013F066
:100DC8001AC014F01200600EF66E0E0EF76E000ECA
:100DD800F86E0900F5CFC2F10900F5CFC3F10101A2
:100DE800C16BC06BBF6BBE6BBD6BBC6B4A6A496A9B
:100DF800486A476A466A4B904B92000EF86E0001AB
:100E08002BEF07F0000E1E6E1CAE06D01B6C1C1ECE
:100E1800D8B01C2A010E1E6E1BC013F01CC014F0A3
:100E2800156A8E0E166E1EC017F0AEEC05F013C0D4
:100E38001BF014C01CF015C01DF0120046C013F0C2
:100E480047C014F048C015F049C016F0120059EC1C
:0A0E580006F009EC00F0FDD70500DC
:020000040020DA
:08000000FFFFFFFFFFFFFFFF00
:020000040030CA
:0E000000240E011EFF0180FF0FC00FE00F4015
:00000001FF
