:0400000007EF00F016
:100008004C8206ED04F0A6EF04F09CD180B215D026
:100018008984898689880ED0CEEC04F013C046F016
:1000280014C047F015C048F016C049F0050E4B6ED5
:10003800020E4A6E80B21200EFD780BA15D08984BA
:10004800898689880ED0CEEC04F013C046F014C01F
:1000580047F015C048F016C049F0080E4B6E020E66
:100068004A6E80BA1200EFD7000E3D6E000E3C6E4D
:10007800000E3F6E000E3E6ED2EC01F0899481B204
:1000880004D00001686B682B02D00001686B6847D8
:100098006847684789506819F70B6819896E899805
:1000A8001200000E4A6E1200CEEC04F06A0E4624CE
:1000B8000001686F130E4720696F000E48206A6FB1
:1000C800000E49206B6F1350685D14506959155024
:1000D8006A5916506B59D8B006D0030E4A6E8994E7
:1000E800899689881200000E3D6E000E3C6E000E47
:1000F8003F6E000E3E6ED2EC01F08984CEEC04F027
:10010800B50E46240001686F090E4720696F000E7E
:1001180048206A6F000E49206B6F1350685D1450B9
:10012800695915506A5916506B59D8B003D06C6B81
:100138006C2B02D000016C6B6C476C476C47895084
:100148006C19F70B6C19896E8998120081A602D078
:1001580082BC0DD00B0E4A6ECEEC04F013C046F0F4
:1001680014C047F015C048F016C049F01200040E3C
:100178004A6E1200030E3D6EE80E3C6E030E3F6E93
:10018800E80E3E6ED2EC01F0030E4A6E1200030E2A
:100198003D6EE80E3C6E010E3F6EF40E3E6ED2ECE4
:1001A80001F0050E4B6E030E4A6E1200010E3D6EF5
:1001B800F40E3C6E030E3F6EE80E3E6ED2EC01F07C
:1001C800080E4B6E030E4A6E1200CEEC04F0C80EF9
:1001D80046240001686F000E4720696F000E482012
:1001E8006A6F000E49206B6F1350685D145069598F
:1001F80015506A5916506B59D8B00FD0030E4A6E75
:100208000D0E4A6ECEEC04F013C046F014C047F051
:1002180015C048F016C049F01200FC0E3D6E180ECD
:100228003C6EFC0E3F6E180E3E6ED2EC01F01200D2
:10023800000E3D6E000E3C6E030E3F6EE80E3E6EE5
:10024800D2EC01F0080E4B6E030E4A6E1200030E3C
:100258003D6EE80E3C6E000E3F6E000E3E6ED2EC18
:1002680001F0050E4B6E030E4A6E1200FD0E3D6E38
:10027800440E3C6E020E3F6EBC0E3E6ED2EC01F098
:10028800080E4B6E030E4A6E1200020E3D6EBC0E37
:100298003C6EFD0E3F6E440E3E6ED2EC01F0050E34
:1002A8004B6E030E4A6E1200CEEC04F0F40E462498
:1002B8000001686F010E4720696F000E48206A6FC1
:1002C800000E49206B6F1350685D14506959155022
:1002D8006A5916506B59D8B003D0030E4A6E1200F3
:1002E800020E3D6EBC0E3C6EFD0E3F6E440E3E6E21
:1002F800D2EC01F0120081B604D00001686B682BC3
:1003080002D00001686B6847684789506819FB0B81
:100318006819896E82BC03D0686B682B02D0000113
:10032800686B683B89506819EF0B6819896E898674
:1003380080A202D080BA120080B280AAFDD7000E37
:100348004A6E12004A50000AD8B460D6010AD8B4DE
:10035800A8D6030AD8B4A8D6010AD8B4F7D6070A8B
:10036800D8B408D7010AD8B490D7030AD8B46FD73D
:10037800010AD8B40CD70F0AD8B478D7010AD8B470
:1003880057D7030AD8B412D7010AD8B41ED7070A18
:10039800D8B4B1D7010AD8A4120086D73E6C3F1E44
:1003A800D8B03F2A3DBE06D0E90E3C5C030E3D584E
:1003B800D8B017D03DAE06D0180E3C5CFC0E3D58A8
:1003C800D8A005D03CC060F03DC061F005D0FC0E5F
:1003D8000001616F180E606F60C03CF061C03DF0B5
:1003E80004D0030E3D6EE80E3C6E3FBE06D0E90E0B
:1003F8003E5C030E3F58D8B017D03FAE06D0180E5B
:100408003E5CFC0E3F58D8A005D03EC062F03FC00D
:1004180063F005D0FC0E0001636F180E626F62C0B6
:100428003EF063C03FF004D0030E3F6EE80E3E6E10
:100438003DAE03D0406A402A01D0406A8950401836
:10044800FE0B4018896E3FAE03D0406A402A01D0A7
:10045800406A8B504018FE0B40188B6E3DBE05D08D
:100468003CC064F03DC065F007D0E80E3C240001B4
:10047800646F030E3D20656F3FBE05D03EC066F039
:100488003FC067F007D0E80E3E240001666F030EF8
:100498003F20676FF20E216E820E226E3F0E236E92
:1004A80064C01BF065C01CF0BCEC04F01BC01EF05F
:1004B8001CC01FF01DC020F035EC03F01EC02DF04D
:1004C8001FC02EF020C02FF0BBEC02F02DC064F04E
:1004D8002EC065F0F20E216E820E226E3F0E236E44
:1004E80066C01BF067C01CF0BCEC04F01BC01EF01B
:1004F8001CC01FF01DC020F035EC03F01EC02DF00D
:100508001FC02EF020C02FF0BBEC02F02DC066F00B
:100518002EC067F064C040F065C041F0D890413209
:100528004032D890413240324050BE6E66C040F0F2
:1005380067C041F0D89041324032D89041324032C1
:100548004050BB6E64C040F0030E4016403ABD50A8
:100558004018CF0B4018BD6E66C040F0030E401621
:10056800403ABA504018CF0B4018BA6E12002FC04C
:1005780031F0326A336A2E34313601E33280315039
:100588003B6E3B50D8A409D0000E2D6E000E2E6E87
:10059800000E2F6E000E306E1200170E316E2DC039
:1005A80032F02EC033F02FC034F03128356E04D02D
:1005B800D890343233323232352EFAD73250366E42
:1005C8002E8EFF0E2D16FF0E2E16000E2F162D50F6
:1005D800376E2E50386E2F50396E3A6A8E0E3B5E4B
:1005E8003BAE16D03B50800A8F0FD8B009D0000E12
:1005F8002D6E000E2E6E000E2F6E000E306E120045
:10060800D8903A323932383237323B3EF9D715D0A2
:10061800170E3B640FD0000E2D6E000E2E6E000ECE
:100628002F6E000E306E1200D890373638363936B5
:100638003A363B063B50D8A4F7D73650D8B408D042
:100648003A1E391E381E376C000E382239223A22DB
:1006580037C02DF038C02EF039C02FF03AC030F036
:10066800120020C024F0256A266A1F34243601E3CC
:1006780025802450276E2750D8A407D0000E1E6E60
:10068800000E1F6E000E206E120023C024F0256A93
:10069800266A2234243601E3258024502C6E2C50FF
:1006A800D8A407D0000E1E6E000E1F6E000E206E1E
:1006B80012002C507B0F272620C02CF023502C1A18
:1006C800800E2C161F8E228EFF0E2116FF0E22166C
:1006D800000E2316000E286E000E296E000E2A6EDC
:1006E800070E2B6E1EA006D0215028262250292244
:1006F80023502A22D89020321F321E32D890213619
:10070800223623362B2EEED7090E2B6E1EA006D0CE
:10071800215028262250292223502A22D8902032DC
:100728001F321E32D8902A32293228322B2EEED789
:1007380028C013F029C014F02AC015F027C016F0FD
:100748002CC017F0AFEC03F013C01EF014C01FF05C
:1007580015C020F012001650D8B405D0135014104C
:100768001510D8A40CD0000E136E000E146E000ED7
:10077800156E1200162AD890153214321332000E54
:100788001314186E000E1414196EFE0E15141A6E3A
:10079800185019101A10D8B40CD0ECD7162A010E1C
:1007A8001326000E1422000E1522D890153214328A
:1007B8001332000E1314186E000E1414196EFF0E67
:1007C80015141A6E185019101A10D8B406D0E6D796
:1007D8001606D89013361436153614BE03D0020EFA
:1007E8001660F6D716A0149ED89016321650151219
:1007F8001750D8A4158E13C013F014C014F015C0E8
:1008080015F012000600FACF01F0FBCF02F0E9CF95
:1008180003F0EACF04F0E1CF05F0E2CF06F0D9CF3C
:1008280007F0DACF08F0F3CF09F0F4CF0AF0F6CFEB
:100838000BF0F7CF0CF0F8CF0DF0F5CF0EF04CC061
:100848000FF04DC010F04EC011F04FC012F09EA234
:1008580007D09E92010E4226000E432244224522D2
:1008680012C04FF011C04EF010C04DF00FC04CF048
:100878000EC0F5FF0DC0F8FF0CC0F7FF0BC0F6FF68
:100888000AC0F4FF09C0F3FF08C0DAFF07C0D9FFA8
:1008980006C0E2FF05C0E1FF04C0EAFF03C0E9FFAC
:1008A80002C0FBFF01C0FAFF4C921100C180C18257
:1008B800C184C1866D966F869282928A929492962E
:1008C8009298938A938893829386948C9492949422
:1008D80094909290000ECA6ECA50870B5809CA6E3F
:1008E800CA50FC0B0109CA6EF90ECB6ECA84000E01
:1008F800BE6ECF0EBD16BD50F00B0C09BD6E000EBE
:10090800BB6ECF0EBA16BA50F00B0C09BA6E000EB9
:10091800F06E000E9D6E000EA06ED09E9D82F28C31
:10092800F28ED09EF28CF28E000E3D6E000E3C6E62
:10093800000E3F6E000E3E6ED2EC01F0899489964F
:1009480089981200B80EF66E090EF76E000EF86E52
:100958000900F5CF4BF000EE42F0090EEE6AE8060A
:10096800FDE14C904C92000EF86E0001D7EF04F0B8
:100978001BC013F01CC014F0156A8E0E166E000E04
:10098800176EAFEC03F013C01BF014C01CF015C0B9
:100998001DF0120042C013F043C014F044C015F01B
:1009A80045C016F012005AEC04F009EC00F0FDD72F
:0109B8000539
:020000040020DA
:08000000FFFFFFFFFFFFFFFF00
:020000040030CA
:0E000000240E011EFF0180FF0FC00FE00F4015
:00000001FF
